:100026001200031201B57F647E0012019FE4F510F1
:10003600F511F512E51204FF120120E51225E02460
:1000460008F8A60608A607E51225E02408F8E6FE45
:1000560008E62511F511EE3510F5100512E512C367
:10006600940440D07F2D1201D1E508FF1201D1AED4
:1000760008AF091201C8E50AFF1201D1AE0AAF0B9B
:100086001201C8E50CFF1201D1AE0CAF0D1201C86A
:10009600E50EFF1201D1AE0EAF0F1201C87F73122B
:0C00A60001D17F057E0012019F02003393
:10000300759850438E40538EFE53890F758BB87588
:0B0013008DFFC2ABD28ED2AFD2AC2268
:10019F00EF1FAC0670011E4C600B007D057C4CDC24
:0501AF00FEDDFC80EB09
:0101B4002228
:0901C8007C007DFF1200CBAF05A5
:0801D1008F993099FDC29922BB
:10017A008B138A148915AB13AA14A9151200B2603D
:10018A00130515E5157002051414F91200B2FF12D1
:05019A0001D180E2220A
:1001B500E4F5B275B17843BA8053BA7F75DE024370
:0301C500BC8022D9
:10012000E4FDFCF5BDF5BE53BCF0EF24FE600F14FA
:1001300060111460132403701243BC4B800D43BC48
:100140004C800843BC4D800343BC4E0000E5BC30EE
:10015000E5FB53BCDF53BCBFAFBDEF4205EDAE04C2
:100160007802C333CE33CED8F9FDAC06E5BEC41356
:090170001354034205AE04AF056F
:010179002263
:0300230002001EBA
:01001E0032AF
:030000000201D921
:0C01D900787FE4F6D8FD75811502002641
:1000B200BB010689828A83E0225002E722BBFE024C
:0900C200E32289828A83E493227F
:1000CB00BC000BBE0029EF8DF084FFADF022E4CC19
:1000DB00F875F008EF2FFFEE33FEEC33FCEE9DECE2
:1000EB00984005FCEE9DFE0FD5F0E9E4CEFD22ED28
:1000FB00F8F5F0EE8420D21CFEADF075F008EF2F72
:10010B00FFED33FD4007985006D5F0F222C398FD62
:05011B000FD5F0EA22FF
:00000001FF
