:020000040800F2
:10000000A8060020C9000008E51F0008C91B000859
:1000100000000000000000000000000000000000E0
:10002000000000000000000000000000DD220008C9
:100030000000000000000000B9210008DF220008D5
:10004000DB00000800000000DB000008DB00000807
:10005000DB000008DB000008DB000008DB00000814
:1000600000000000DB00000881020008DB0000083F
:10007000DB000008DB000008DB00000800000000D7
:10008000692300080000000000000000DB000008F9
:1000900000000000DB000008DB000008DB000008B7
:1000A00000000000DB00000800000000F12800084C
:1000B0000448854600F090F800480047752B00087A
:1000C000C046C046A80600200448804704480047B0
:1000D000FEE7FEE7FEE7FEE7FEE7FEE76523000832
:1000E000B100000830B50B46014600202022012453
:1000F00009E00D46D5409D4205D31D469540491B5C
:100100002546954040191546521E002DF1DC30BDA4
:10011000F0B51FB40646002082B005464024019188
:1001200000901BE0019922460F46304600F020F86F
:10013000049A059B801A994110D31046194622460D
:1001400000F039F8361A8F4101972246012000212C
:10015000009F00F030F838184D4100902046641E92
:100160000028DFDC019B00982946324607B0F0BD2D
:1001700010B5202A04DB0846203AD040002110BDEB
:100180000B46D340D0402024A21A91400843194680
:1001900010BDD2B201E00270401C491EFBD2704774
:1001A0000022F6E710B513460A4604461946FFF743
:1001B000F0FF204610BD10B5202A04DB0146203A8E
:1001C0009140002010BD914020239C1A0346E3403B
:1001D0001943904010BD0000064C0125064E05E075
:1001E000E36807CC2B430C3C98471034B442F7D358
:1001F000FFF762FF0437000824370008F8B504460B
:1002000000200090206881688907890F012905D1A5
:100210000168C9072CD1C168090429D48168154A2D
:10022000102611400125002915D1816829438160DC
:10023000124811490068FFF755FF00E0401E00908A
:100240000028FBD100F01CFC07460CE000F018FC75
:10025000C01B022807D9A06B3043A063E06B284382
:10026000E0630120F8BD20680068C043C007EDD1FD
:100270000020F8BD1700008040420F004000002021
:1002800010B5034800F078FA024800F075FA10BD86
:10029000640200202002002010B5044600680549D1
:1002A00040181421FFF71EFF800020640248E0631D
:1002B00010BD0000F8FFFDBF0000024030B5056C26
:1002C0000124AC40C56B6C60046863604368102B0C
:1002D000036803D099600068C26030BD9A6000680E
:1002E000C16030BD72B6FEE7F8B500250446203483
:1002F0000095227D012A39D00122227503689E686B
:10030000760767D4384F4E68BE424DD09E6A0F784C
:10031000BA4016439E620123C26A1B079A421FD04D
:10032000012A1DD0022A1BD0032A19D0042A17D073
:10033000052A15D0062A13D0072A11D002688B6827
:1003400056697607760FB3420AD05369DB08DB00A3
:100350005361006842690B7A5B075B0F1A43426185
:100360000A68102A04D0112A02D038E00220F8BD11
:100370001E488368102A07D0012292051343836028
:100380000868102803D02AE00122D205F6E71948B0
:1003900017490068FFF7A6FE0A21484300E0401E07
:1003A00000900028FBD11AE0986A0E78B240904382
:1003B00098620968102901D0112910D10B48826870
:1003C000102904D0012189058A43826007E00121B8
:1003D000C905F9E7816B20221143816301250020C3
:1003E00020752846F8BD00000110000000270140DC
:1003F00040420F0040000020806B70470068006C96
:1004000070470000F8B500260446002805D0A06B10
:1004100025462035002802D007E00120F8BD002045
:10042000E0632875204600F0A9F8A06B1022C006F2
:10043000002870DB2068816849076CD4A16B130128
:10044000994302231943A16381688907890F012910
:1004500005D10168C9070FD1C16809040CD4C1686E
:1004600018239943A3681943C16020680169636830
:1004700089008908194301612068C1683D4B194012
:10048000C160207E617E8003C9030843A17E4B03C7
:100490001843A36A012B02D001231B0300E00023B1
:1004A0001843E36818432369022B09D0002318433B
:1004B0002B79E57E5B0018430123012D02D00AE071
:1004C0000423F4E7002927D0A16B20252943A16349
:1004D000E16B1943E163E1690D46FF3DC23D02D086
:1004E000256A294308432168CD680543CD6001256D
:1004F000E16A2D07A94213D0012911D002290FD09A
:1005000003290DD004290BD0052909D0062907D0CD
:10051000072905D010E028E0012109040843DAE7A3
:1005200021684D69ED08ED004D6121684D69A78D89
:100530007F077F0F3D434D612168C9680E4D2940FB
:10054000814207D10020E063A06B80088000401C3E
:10055000A06308E0A06B022188431043A063E06B16
:100560001843E06301263046F8BDA06B1043A0633A
:10057000F8E700001902FEFFE7FF3F8310B586B0E1
:10058000044614216846FFF70BFE10492068884294
:1005900019D10F48826941150A43826182690A4074
:1005A0000592426909020A43426140690840059088
:1005B000022000900320019000200290092069464B
:1005C000C00600F099F906B010BD000000240140FB
:1005D00000100240F8B504464069254620350E4615
:1005E00008280BD02068C068C00709D0A06B202164
:1005F0000843A063002028750120F8BD082700E00B
:100600000C2700F03DFA009011E0701C0FD0002E76
:1006100005D000F035FA0099401AB04207D9A06B16
:1006200004210843A063002028750320F8BD20683A
:1006300000683842E9D0A06B012149020843A06359
:100640002068C16809058A0F0C21002A1AD1A27EF0
:10065000002A17D10268120714D5826853070122B5
:10066000002B08DB43688B434360A06B1302984365
:100670001043A06306E0A06B20231843A063E06B47
:100680001043E063207E002801D120680160002033
:10069000F8BD000070B5044621680020896849074C
:1006A00021D425462035297D01291CD00121297519
:1006B000617E012904D02046FFF7A0FD002811D15A
:1006C000A16B0A4A1140FF2201321143A1630021AC
:1006D000E163297522681C21116021688A6804235E
:1006E0001A438A6070BD022070BD0000FEF1FFFF5A
:1006F00030B5014620314B780022022B04D0042370
:1007000083630A70012030BD03681C680E25AC436A
:100710001C6003681C68640864001C600123056C8D
:100720001C46C06BAC4044604B700A70002030BD6A
:1007300070B50024014620314A78022A03D00421F2
:100740008163012416E0026813680E25AB43136031
:10075000026813685B085B0013600122056C134696
:10076000AB40C56B6B604A7000220A70416B002978
:1007700000D08847204670BDF0B4C16B0D68016899
:100780000C680422066C1346B3402B420DD063075D
:100790000BD50B689B0602D40B6893430B60016C6E
:1007A0008A40C16B4A60C16A19E00227B74002461D
:1007B0002F4001232032002F15D0A70713D50C6836
:1007C000A40604D40C680A25AC430C605370036C77
:1007D00002219940C36B596000211170816A002980
:1007E00016D0F0BC08470827B7402F4210D0240786
:1007F0000ED50C680E25AC430C60046C1946A14064
:10080000C46B61608363537000211170016BE6E774
:10081000F0BC704770B5040021D002212046203082
:1008200005464170226811680E48A368014060685F
:1008300026691843E3683343184363691843A3697F
:100840001843E3691843084310602046FFF724FD6E
:100850000021A163012068702970084670BD012045
:1008600070BD00000FC0FFFFF8B504468C46203075
:1008700001780025012909D001260670417800275A
:10088000012905D0077002252846F8BD0220F8BDD1
:1008900002214170A763206801684908490001608E
:1008A00061462046FFF70AFDE06A002820680168DB
:1008B00002D00E22114306E00A2211430160206893
:1008C000016804229143016020680168314301609E
:1008D000DAE7000070B5044600F0D2F80546601C67
:1008E00002D004480078241800F0CAF8401BA04247
:1008F000FAD370BD34000020FCB500230124A1E030
:1009000027462A469F403A4073D04D68012D05D0B6
:10091000022D03D0112D01D0122D16D1856803268A
:10092000AC465D00AE46AE406546B543AC46CE68CB
:100930007546AE4065462E43866046680D79BE43D7
:10094000ED06ED0F9D4035434560C6685F00032509
:10095000BD40AE46AE4335468E68BE402E43C660AF
:100960004E68022E01D0122E14D1DE08B6003618C1
:100970000196366A5D07B446EE0E0F25B540009627
:100980006646AE43B4460D69009EB54066462E43AA
:10099000019D2E6206687546AE430D79AD07AD0F19
:1009A000BD40354305604D68ED004AD5284DAE6920
:1009B0002643AE61AD699E08ED07ED0F0095254D0C
:1009C000B6007519AC46AD689E07360F0F27B740C5
:1009D000BD430927FF06B84201D1002710E01E4F92
:1009E000B84201D101270BE01C4FB84202D10227C7
:1009F00006E026E01A4FB84201D1032700E00527A0
:100A0000B7402F436546AF60164E35684F68954333
:100A1000FF0300D51543356075684F689543BF03E4
:100A200000D515437560B5684F689543FF0200D542
:100A30001543B560F5684F689543BF0200D515436F
:100A4000F5605B1C0A681546DA4000D058E7FCBD2B
:100A50000010024000000140000400480008004867
:100A6000000C0048000401400069084000D001204B
:100A70007047002A01D08161704781627047000091
:100A800001488068704700003400002070B50246BD
:100A900040325378202B1CD11378012B19D001231D
:100AA000137024245470046825689D4325600468ED
:100AB00025681E03B5432560046825680D4325603D
:100AC00000680168194301602020507000201070F8
:100AD00070BD022070BD70B5024640325378202BA5
:100AE0001BD11378012B18D00124147024235370C8
:100AF00003681D68A5431D6005682B680F26360234
:100B0000B343090219432960006801682143016069
:100B1000202050700020107070BD022070BD0000B9
:100B200070B5040006D025464035687800260028B8
:100B300002D005E0012070BD2E70204600F0F0F8D4
:100B400024206870206801684908490001600F216D
:100B50006068090688432168086121688A68012065
:100B6000C00382438A60E1680129A16808D021227C
:100B70009202114322689160E168022902D005E0E7
:100B80000143F7E701212268C902516021684A68E0
:100B90000F4B1A434A602168CA688243CA60616980
:100BA00020690843A169090208432168C860216AD5
:100BB000E069084321680860206801680122114348
:100BC00001606664202068702663AE70002070BDEE
:100BD00000800002FFB5054604464035687883B0C2
:100BE000202872D10C98002814D00D98002811D01C
:100BF0002878012869D001202870FFF741FF0746B7
:100C0000012200901923D103204601F06BF800283F
:100C100071D103E00120400260646CE02120687023
:100C20004020A870002666640C9860620D9860856C
:100C300066630E980090019704A90EC9204601F042
:100C40000DF8002801D02E7055E0608DFF2805D9E1
:100C5000FF22228501231B06009606E0608D208579
:100C60000096208D0123C2B25B062046049901F054
:100C700025F83A4620460E9901F081F800283AD12D
:100C8000606A216800788862606A401C6062608DDA
:100C9000401E6085208D401E80B22085618D002918
:100CA0001FD000281DD100970022802120460E9BD6
:100CB00001F018F800281ED1608DFF2806D9FF2208
:100CC000228501231B06009607E024E0608D208525
:100CD0000096208D0123C2B25B062046049900F0E5
:100CE000EDFF608D0028C4D13A4620460E9901F0F0
:100CF00020F8002802D0012007B0F0BD2068202194
:100D0000C16120684268054B1A4042606970AE704C
:100D10002E700020F0E70220EEE7000000E800FE61
:100D200010B586B0044614216846FFF739FA134916
:100D30002068884220D1124C61690120400401439F
:100D40006161616901400320059140020090122019
:100D500001900120029003200390042004900920B8
:100D60006946C006FFF7C8FDE1690120400501435F
:100D7000E161E1690140059106B010BD00540040F9
:100D8000001002400248816802788918816070472B
:100D90003400002010B5064801681022114301609C
:100DA000012000F007F800F027F8002010BD000037
:100DB0000020024070B504460D4D7D202978C0000A
:100DC000FFF790F901460B480068FFF78BF900F038
:100DD00043FB002809D1042C07D200222146401EE3
:100DE00000F02AF800206C6070BD012070BD00008A
:100DF000340000204000002008B508488169012225
:100E000011438161816911400091C26901040A4363
:100E1000C261C0690840009008BD00000010024097
:100E2000002805DBC106C90E012088400149086081
:100E30007047000000E100E010B501F093FD10BD27
:100E4000F8B505460068354CC00352D5E069002668
:100E5000C00007D4E16920040143E161E169014078
:100E6000012600912E480168C90510D40168821539
:100E700011430160FFF704FE074604E0FFF700FEA0
:100E8000C01B642824D826480068C005F6D5206A0F
:100E900003273F02384020D06968394081421CD086
:100EA000206A226AB843012109040A432262226AA5
:100EB0008A4322622062C0070FD0FFF7E1FD009055
:100EC00008E0FFF7DDFD0099411A1648814201D97B
:100ED0000320F8BD206A8007F3D5206A6968B8430B
:100EE00008432062002E04D0E169012000078143FD
:100EF000E1612878C00705D0206BA96880088000D0
:100F0000084320632878800605D5206B102188438C
:100F1000E968084320630020F8BD0000001002408B
:100F20000070004088130000F8B50F46060059D045
:100F30003A4D2868C007C00FB84209D22868400857
:100F40004000384328602868C007C00FB84249D124
:100F50003068334C81070CD5400704D56068072101
:100F60000902084360606068F0218843B168084363
:100F700060603078C00726D0706801280ED02168E4
:100F800002280ED0890700292CDA616889088900B7
:100F900001436160FFF774FD00900DE02168890353
:100FA000F1E78901EFE7FFF76BFD0099411A1D4852
:100FB000814201D90320F8BD60680C2108407168A6
:100FC00089008842EFD12868C007C00FB8420BD90A
:100FD000286840084000384328602868C007C00FD0
:100FE000B84201D00120F8BD3078400706D56068CE
:100FF000072109028843F1680843606000F028F87F
:101000006168094A0906090F515CC8400749086030
:101010000120FFF7CFFE0020F8BD000000200240B5
:101020000010024088130000EC3600084000002049
:101030000448054900684968044A4905490F515C5C
:10104000C84070474000002000100240FC360008F5
:1010500010B514A30FCB88B06C460FC415A30FCBEB
:101060000FC4184A51680C200B4603401648042B45
:1010700016D0082B14D18B021B0F6C46E45CD26A8D
:1010800004AB1207120F9A5CC90305D50023194659
:10109000FFF73EF8214601E020460C4901F04AFCEA
:1010A00008B010BD02030405060708090A0B0C0D61
:1010B0000E0F10100102030405060708090A0B0CA5
:1010C0000D0E0F100010024000127A0000093D00C2
:1010D000FEB5040070D02078DC4DC0074AD06868A7
:1010E0000007800F012807D068680007800F0228DA
:1010F00009D16868C00306D5286880033AD56068BE
:101100000028E7D036E06168012914D0012080046E
:10111000002901D0052914D02A68012109048A4335
:101120002A602968814329606068002816D0FFF78B
:10113000A7FC06460EE02868012109040843286040
:10114000F2E7296801432960F5E7FFF799FC801B66
:1011500064286ED828688003F7D50BE0FFF790FC71
:10116000064604E0FFF78CFC801B6428F1D8286851
:101170008003F7D420780126800700283CDA6868CD
:101180000007800F07D068680007800F022809D188
:101190006868C00306D42868800716D5E06801286F
:1011A0000AD112E0E0680028286816D03043286091
:1011B000FFF766FC074605E043E1FFF761FCC01B53
:1011C0000228C6D828688007F7D52868F821884300
:1011D0002169C900084328600EE0400840002860EB
:1011E000FFF74EFC074604E0FFF74AFCC01B02284D
:1011F000AFD828688007F7D42078000722D5E069A7
:101200000028686A0ED030436862FFF739FC074651
:1012100004E0FFF735FCC01B02289AD8686A8007F3
:10122000F7D50FE0400840006862FFF729FC074649
:1012300005E09DE0FFF724FCC01B022889D8686AFE
:101240008007F7D4207804274007002860DA0020C0
:101250000190E869C00008D4E969B8060143E96172
:10126000E969014001200091019079480168C905B0
:1012700011D40168821511430160FFF701FC009051
:1012800005E0FFF7FDFB0099401A642870D870480C
:101290000068C005F5D5A06801280AD0002801D053
:1012A000052810D0286A400840002862286AB84300
:1012B00001E0286A30432862A068002812D0FFF7B6
:1012C000DFFB00900AE0286A38432862F1E7FFF765
:1012D000D7FB0099411A5F48814249D8286A8007A4
:1012E000F5D50DE0FFF7CCFB009006E0FFF7C8FB5B
:1012F0000099411A574881423AD8286A8007F5D4A4
:101300000198002804D0E969012000078143E961C0
:101310002078C00635D5606901280CD0401D686B67
:1013200023D038436863686B400840006863FFF768
:10133000A7FB064622E0686B38436863686B30435E
:101340006863FFF79DFB064604E0FFF799FB801BEF
:1013500002285BD8686B8007F7D5686BF821884353
:10136000A169C900084368630BE0B8436863F4E708
:101370004CE0FFF785FB801B022847D8686B80078D
:10138000F7D4206A00285ED069680907890F02290E
:1013900042D0012636060228286805D0B0432860CE
:1013A000FFF76EFB044633E0B0432860FFF768FBAD
:1013B000074604E0FFF764FBC01B022826D8286814
:1013C0008001F7D4E86AE16A000900010843E86295
:1013D000616AA06A084369683D2212049143084388
:1013E0006860286830432860FFF74AFB044604E041
:1013F000FFF746FB001B022808D828688001F7D5B4
:1014000021E0FFF73DFB001B022801D90320FEBDB0
:1014100028688001F5D416E00128F8D06868E96AE8
:1014200001221204636A02409A420AD10907E26A61
:10143000090F914205D10F2189040840A16A884211
:1014400001D00120FEBD0020FEBD000000100240C2
:101450000070004088130000094910B5401E884202
:1014600001D9012010BD074C60610321081F01F064
:1014700079FA0020A06107202061002010BD000043
:10148000FFFFFF0000E000E070477047F0B5024644
:101490002032137F012B1BD00126167702235377AE
:1014A00005686B68AC687027BB430F681F436F60AB
:1014B0000068084B984202D0074B984204D1802321
:1014C00049689C4321438160567700201077F0BD26
:1014D0000220F0BD002C01400004004070B5040063
:1014E00005D025462035687F002802D006E001207F
:1014F00070BD00202877204600F014F8022068779D
:10150000211D206800F038FF01204034A071A87729
:10151000E87720706070A070E0702071607168776B
:10152000002070BD08B50068094988420FD10948FC
:10153000C26902210A43C261C069002208400090CA
:1015400003211020FFF778FC1020FFF769FC08BD8D
:101550000004004000100240014620314A7F012A69
:1015600001D00120704702224A770268D368012126
:101570000B43D3600068084A904202D0074A904269
:1015800004D182685207520F062A02D002680A4329
:101590000260002070470000002C01400004004061
:1015A000F8B5054604462035287F012817D00126C6
:1015B0002E7702206877226890687727FF23B84348
:1015C0001B02984390600A68502A31D00EDC202A12
:1015D0004BD006DC002A48D0102A3AD145E0022040
:1015E000F8BD302A41D0402A33D136E0602A27D0D6
:1015F000702A12D001200003121A2AD0824228D168
:10160000CB684A688968206800F0F2FE206881682B
:1016100001229203114381601BE0CB684A6889680C
:10162000206800F0E5FE216888683843886010E093
:10163000CA684968206800F0EEFE5021206806E084
:10164000CA684968206800F0F7FE6021206800F051
:10165000DAFE6E7700202877F8BDCA6849682068EE
:1016600000F0D9FE40212068F1E711462068EEE73E
:10167000704770B50446006801690025C9438907B1
:10168000002915DBC168C943890711D4E91E01612E
:1016900001202077206880698007204602D0FFF76C
:1016A000E7FF04E000F096F8204600F094F8257774
:1016B00020680169C943490717D4C168C94349076C
:1016C00013D40421C9430161022020772068806976
:1016D0008005800F204602D0FFF7CAFF04E000F02B
:1016E00079F8204600F077F8257720680169C9432A
:1016F000090716D4C168C943090712D40821C94390
:101700000161042020772068C0698007204602D04C
:10171000FFF7AEFF04E000F05DF8204600F05BF854
:10172000257720680169C943C90617D4C168C94330
:10173000C90613D41021C94301610820207720680D
:10174000C0698005800F204602D0FFF791FF04E0BA
:1017500000F040F8204600F03EF825772068016947
:10176000C943C90708D1C168C943C90704D1891E43
:101770000161204600F030F820680169C94309067C
:1017800009D4C168C943090605D48021C943016150
:101790002046FFF779FE20680169C943490609D44C
:1017A000C168C943490605D44021C94301612046A7
:1017B00000F013F820680169C943890609D4C1689B
:1017C000C943890605D42021C94301612046FFF79A
:1017D0005CFE70BD70477047704770477047704738
:1017E000F8B502680446D069116896687B4B0546D7
:1017F0001D402023002D6CD0F707794DFF0FBC460C
:101800000D402F4379D02546C7078035002F06D0DD
:10181000CF0504D5012717622A683A432A60820758
:1018200008D5F20706D0276802223A622A68042700
:101830003A432A60420708D5F20706D026680422F8
:1018400032622A68022632432A6002070AD50A4613
:101850001A406646324305D02668082232622E6856
:1018600016432E60020508D54A0106D501222668D6
:10187000D20232622A681A432A602A68002A30D0CB
:10188000800606D5880604D5616E002901D0204661
:101890008847286821688968490602D428210842B7
:1018A00025D0204600F0DEFE20688168490619D563
:1018B000826840218A438260206F002812D0494903
:1018C0004163206FFEF734FF00280AD0206F416B80
:1018D00006E0850611D58D060FD5616E6BE02046BA
:1018E0008847F8BD2046FFF77AFFF8BD05E020469F
:1018F000FFF775FF00202860F7E7256E012D55D111
:10190000C50653D5CD0651D51026166220688168CC
:10191000254649064035002929DA226F11684968B1
:101920000904090CE1D02F8B8F42DED969839169BC
:10193000202917D001683201914301602068816835
:101940004908490081602068826840218A4382609A
:10195000E3670020206620680168B1430160206FC2
:10196000FEF7C6FE288B698B401A81B21AE0298BDC
:101970006A8B891A6A8B89B2002AB6D00029B4D042
:101980000268FF252135AA43026020688268520858
:1019900052008260E367002020666066206802686B
:1019A000B24302602046FFF719FF9EE7050605D502
:1019B0000D0603D5A16E002991D196E7400694D576
:1019C000480692D52046146840218C4314608367F2
:1019D0000021816600F0F7F887E700000F0800009B
:1019E000200100048D25000810B5040003D0A06F6D
:1019F000002802D007E0012010BD0021742001550D
:101A0000204600F027F82420A067206801684908D4
:101A100049000160204600F047FE0128ECD0606AD2
:101A2000002802D0204600F01AFD206841680122FB
:101A3000D20291434160206881680822914381600D
:101A400020680168012211430160204600F06CFD0E
:101A500010BD0000F0B587B0054614216846FEF7BA
:101A60009FFB2D492868884253D12C488269012167
:101A700089030A43826182690A4005924269C9006A
:101A80000A43426140690027084005900C200090FD
:101A90000220019003200390012004900920029766
:101AA0006946C006FEF728FF1D481E4C802681C4EB
:101AB0002760A760E760202066602061C70167613A
:101AC0001848083CFEF7A6FE002801D0FEF70AFCE5
:101AD0002C6765621248134C14384434206010207F
:101AE00060600020A06020616061E761E660A06145
:101AF0002046FEF78FFE002801D0FEF7F3FBEC66D0
:101B0000002211461B206562FFF796F91B20FFF7A4
:101B100087F907B0F0BD0000003801400010024016
:101B2000300002402002002070B5C36F202B24D16A
:101B300000290BD0002A09D0012483682403A34282
:101B400006D10369002B03D1CB0701D0012070BD62
:101B5000034660331C7D012C0FD001241C7500232B
:101B6000036603685C68240204D51C680125AD0681
:101B70002C431C6000F026FE70BD022070BD0000EA
:101B800010B50D490D4C884202D100F029FFA0701C
:101B90000B48014602688039402A04D223788B54CE
:101BA0000168491C06E022780A7005490023403983
:101BB0005A540121016010BD9C0100201C0000202E
:101BC000C400002070477047FEE701688A69D2436D
:101BD000920701D400228A6200688169C943C9075B
:101BE00003D081690122114381617047F7B5044632
:101BF00000680E468069C043C0062BD420272546C6
:101C0000403520688069C043800612D5701CF8D02A
:101C1000FEF736FF0299401AB04201D8002EF0D1EB
:101C2000606C384360646F700020A87028700120D9
:101C3000FEBD21681020C8612068C7612046FFF7FB
:101C4000C4FF20684168044A11404160606C04216F
:101C50000843E7E70020FEBD00E800FEF8B50446B3
:101C6000164615481D46DAB2C3020090079F20466B
:101C700000F024F83A462046069900F080F8002843
:101C800018D12846F5B2012809D02168300A8862A7
:101C90003A462046069900F072F800280AD12068DA
:101CA00085620097002280212046069B00F01AF8EA
:101CB000002800D00120F8BD00200080F0B50668A3
:101CC000059C7568064F600D384385438805800D77
:101CD000110408431843204305437560F0BD00001C
:101CE000FF63FF03F8B51D4617460E46044609E09C
:101CF000681C07D0FEF7C4FE0699401AA8420BD80C
:101D0000002D09D020688169304688430FD000201B
:101D1000B842EDD00020F8BD616C20200143616421
:101D2000403460700020A07020700120F8BD0120B8
:101D3000EEE770B516460D4604460FE032462946DA
:101D40002046FFF753FF002801D0012070BDFEF7A9
:101D500097FE801BA84208D8002D06D02068806915
:101D6000C0438006EAD4002070BD616C202001438E
:101D70006164403460700020A0702070E5E770B5A9
:101D800016460D46044611E0324629462046FFF726
:101D90002DFF002801D0012070BD681C06D0FEF781
:101DA0006FFE801BA84208D8002D06D020688069ED
:101DB000C0438007E8D4002070BD616C202001433F
:101DC0006164403460700020A0702070E3E7000080
:101DD0003EB5002117480091019102914160816058
:101DE0000124134A04610260C16004224261017649
:101DF00041768176FF22C176C232C261024601621B
:101E0000203211718462FEF7FDFA002801D0FEF73E
:101E100069FA0120000301900520029000946946B0
:101E20000448FEF761FA002801D0FEF75BFA3EBDD8
:101E300000240140C800002008B50848416901227B
:101E400011434161406902211040009000220A20A4
:101E5000FEF7F2FF0A20FEF7E3FF08BD0010024084
:101E6000F0B587B014216846FEF79AF91848426920
:101E7000012189050A43426142690A40059242698B
:101E800049110A434261406909270840FF0605904D
:101E90000022E0213846FEF7ECFD03260025012450
:101EA00069460C48009601950294FEF725FD0094C2
:101EB0006946384601950294FEF71EFDE0206A4609
:101EC00071C269463846FEF717FD07B0F0BD000045
:101ED000001002400014004810B513481149016079
:101EE00012494160002181600161416181610122EB
:101EF000C161C2600162FEF713FE002801D0FEF747
:101F0000F1F900210848FEF7C1FD002801D0FEF7D5
:101F1000E9F900210448FEF7DEFD002801D0FEF7B4
:101F2000E1F910BD00540040080100205D3E302062
:101F300010B586B0002400941748019402940394CD
:101F40000494144905940160144984604160144963
:101F50000461C16080218161FFF7C0FA002801D0CF
:101F6000FEF7C0F901200003009069460A48FFF718
:101F700017FB002801D0FEF7B5F9049404A9064820
:101F80000594FFF783FA002801D0FEF7ABF906B0FD
:101F900010BD00000004004054010020BF120000EA
:101FA000CF07000010B50E480C490160E12149023D
:101FB000416000218160C160016181610C22C161C9
:101FC000426101621021416209028163FFF70CFD49
:101FD000002801D0FEF786F910BD0000003801404E
:101FE0009C010020FEE770B500242046B030C0B24E
:101FF00000F0BAF8002000F0B7F8102000F0B4F8B4
:102000000025002000F0C4F86D1CEDB2802DF8D33F
:10201000641CE4B2082CE8D370BD10B5C820FEF7EC
:1020200059FC00F06DFC10BD10B50446B031C8B2CB
:1020300000F09AF82009103000F096F82007000F01
:1020400000F092F810BD0000FFB581B0203A019871
:1020500000240D46D6B27F2803D900208D1CEDB296
:102060000190102B29460ED0FFF7DEFF06204643D5
:1020700013483518285D00F08BF8641CE4B2062C78
:10208000F8D305B0F0BDFFF7CFFF37010D4E38197B
:10209000305C00F07DF8641CE4B2082CF7D36D1CB2
:1020A000E9B20198FFF7C0FF002438198019007ABF
:1020B00000F06EF8641CE4B2082CF6D3E1E70000EF
:1020C000D42E0008FC300008FFB581B000270A9824
:1020D0001D463C46460829E0281B401EC1B20A2086
:1020E00000F0DCFD01460398FDF7FCFF0A21FDF737
:1020F000F9FF002F05D1681E844202DA002909D0B9
:1021000001273031CAB23046019960434018C0B24D
:102110000A9B06E030460199604340180A9BC0B212
:1021200020220299FFF790FF641CE4B2AC42D3D3A3
:1021300005B0F0BDFFB581B017460E460446002538
:102140000DE031462046049BFFF77EFF0834E4B2E1
:10215000782C02D90024B61CF6B26D1CEDB27A5D63
:10216000002AEED105B0F0BD01B584B0FF220121F7
:10217000013204A80B4602920191009000227821BE
:102180000248FEF727FD05B000BD00000801002051
:1021900001B584B0FF220121013204A80B4602924E
:1021A00001910090402278210248FEF713FD05B00E
:1021B00000BD0000080100207047000010B5092094
:1021C00001222021C006FEF754FC102305A20221A3
:1021D0005020FFF7AFFF102303A202215020FFF78A
:1021E000A9FF10BD200000005900000010B5092013
:1021F00001224021C006FEF73CFC1023064A0421C0
:102200005020FFF797FF044A1023121D042150208D
:10221000FFF790FF10BD0000E421000810B5092071
:1022200001228021C006FEF724FC1023064A062165
:102230005020FFF77FFF044A1023121D0621502073
:10224000FFF778FF10BD0000E421000810B5092059
:1022500000222021C006FEF70CFC1023054A0221B3
:102260005020FFF767FF102303A202215020FFF741
:1022700061FF10BDE42100084E00000010B50920E8
:1022800000224021C006FEF7F4FB1023054A04217A
:102290005020FFF74FFF1023034A04215020FFF77F
:1022A00049FF10BDE42100087822000810B509207C
:1022B00000228021C006FEF7DCFB1023054A062120
:1022C0005020FFF737FF1023034A06215020FFF765
:1022D00031FF10BDE421000878220008704710B5D6
:1022E000FEF750FD10BD70B594B030216846FDF783
:1022F00057FF00240F94122000900D940120129497
:102300000390102505900E94052010941394C0049A
:102310000C940495022606950A9011940896099447
:102320000B946846FEF7D4FE002801D072B6FEE793
:1023300007200C900E9401210D960F940CA8FEF727
:10234000F3FD002801D072B6FEE72120109013950E
:10235000129410A8FEF774FD002801D072B6FEE7B3
:1023600014B070BD7047000010B50248FFF781F946
:1023700010BD00005401002070B50268174B184EC4
:10238000984201D0B04203D17024A2434C6822434A
:10239000144C154D984208D0B04206D0134EB042AE
:1023A00003D0A04201D0A84204D103263602B24392
:1023B000CE6832438026B2434E69324302608A6857
:1023C000C2620A688262984203D0A04201D0A84249
:1023D00001D1096901630121416170BD002C0140F7
:1023E000000400400044014000480140002000403B
:1023F00030B58468FF252D021B021343AC430B4309
:102400002343836030BD826870239A430A430721C7
:102410000A438260704730B5036A046A6408640046
:1024200004628469F025AC43120122430A24A343C9
:102430000B438261036230BD30B5036A1024A343AD
:1024400003628469036A0F252D031203AC43224300
:10245000A024A343090119438261016230BD10B574
:10246000818CC90707D001684A6801235B049A433D
:10247000836A1A434A60818C890707D501684A68D4
:1024800001231B049A43C36A1A434A60818C49079B
:1024900007D501684A6801239B049A43036B1A43DA
:1024A0004A60818C090707D501684A680123DB036C
:1024B0009A43436B1A434A60818CC90607D5026868
:1024C000916801231B039943836B19439160818CAD
:1024D000890607D501688A6801235B039A43C36BA9
:1024E0001A438A60818C490612D503685A68012113
:1024F0000905046C8A4322435A60026C8A4207D160
:102500000268516803235B059943436C194351608A
:10251000818C090607D501684A680123DB04806CB9
:102520009A4302434A6010BDF8B504460026803045
:102530000660FEF7A5FA054620680068124F0007FE
:1025400009D501212B46002249052046009700F0BD
:102550007FF900280DD12068006840070BD50121C4
:102560002B46002289052046009700F071F90028CB
:1025700001D00320F8BD2020A067E0672666603404
:1025800026750020F8BD0000FFFFFF0110B5406A6E
:102590000022014640314A834A82FFF720F910BDEC
:1025A00070B5446AA06FE56F216889680026090646
:1025B000002906DA212804D152200653204600F0D3
:1025C0006AF820688068400606D5222D04D15A207A
:1025D0000653204600F046F820468030016810225D
:1025E000114301602046FFF7FAF870BD10B50146AF
:1025F0008969406A20291CD000225A210A520168A8
:102600000A68FF2301339A430A6001688A68520806
:1026100052008A6001688A6840239A438A602021B8
:10262000C167016E012904D101680A6810239A4329
:102630000A60016E012902D0FFF7A2FA10BD5821ED
:10264000095AFFF7CBF810BD10B5406A016E012999
:1026500002D0FFF7B7FA10BD5821095A4908FFF711
:10266000BDF810BD01680A68FF2321339A430A6050
:1026700001688A68520852008A60016E012904D1FB
:1026800001680A6810239A430A602021C16700216B
:1026900001664166704701680A68C0239A430A6070
:1026A000202181677047000070B504468068216969
:1026B000E2690843616900251143084321680A68FB
:1026C0003C4B1A4002430A60216848680322120307
:1026D0009043E26810434860A169206A084321687A
:1026E0008A680B231B029A4302438A603248006BBC
:1026F0008007800F16D0012818D0022818D0032890
:1027000012D010210120E369C0032C4A2C4E8342D1
:102710002BD100290ED002290FD004290FD008296F
:102720003FD110E00021EDE70221EBE70421E9E7CA
:102730000821E7E7FEF77CFC03E0104603E0FEF724
:1027400087FC002831D0616840004A088018FDF7F6
:10275000C9FC80B201461039B14222D81849491C3F
:1027600001400007400F08431DE0002906D0022960
:1027700007D0042907D0082913D108E0FEF758FC38
:1027800003E0104603E0FEF763FC00280DD061680B
:102790004A081018FDF7A6FC80B201461039B14274
:1027A00001D9012501E02168C86000206066A066AB
:1027B000284670BDF369FFFF0010024000127A0046
:1027C000EFFF0000F8B5044641654030002627467B
:1027D000028380373E602220E0672546206F603507
:1027E00000281CD017498162216F1748C862216FE9
:1027F00016480863206F4663236F606D9C4613463E
:102800002168024660462431FEF72EF8002806D0E3
:10281000102038602E752020A0670120F8BD2E758D
:1028200020680168FF22013211430160206881683D
:102830000122114381602068816840221143816038
:102840000020F8BDED25000849260008A125000854
:10285000FFB581B005460F46044660350A9E39E053
:10286000701C37D0FEF70CF90499401AB04222D8F8
:10287000002E20D02068016849072BD5C069C043CD
:10288000000527D401202168C00208622068016881
:10289000FF22A13291430160206881684908490004
:1028A00081602020A067E0678034206000202875C8
:1028B000032005B0F0BD20680168FF22A1329143DA
:1028C0000160206881684908490081602020A06774
:1028D000E067EBE72068C1693846884305D00021EE
:1028E00003988142BCD00020E3E70121F8E7000013
:1028F00010B50248FEF774FF10BD00009C010020D7
:10290000FEB5FF2500240135084F01263819009037
:10291000012300227821019602950548FEF75AF915
:10292000641CE4B21B2CF1D3FEBD000000000020AB
:1029300008010020F8B5040C8BB2264682B25E4333
:102940000D0C1046370C584336048019002179418C
:1029500016466E43370C36048019794126466E437D
:102960008919F8BD8307FF22DB0E9A408907090EFB
:102970009940002808DB830809489B001B18186849
:1029800090430843186070470007000F0838830819
:1029900004489B001B18D86990430843D8617047CE
:1029A00000E400E000ED00E002E008C8121F08C1EA
:1029B000002AFAD170477047002001E001C1121FC0
:1029C000002AFBD17047034610B50020024603E001
:1029D0001C78521C60405B1C8A42F9D310BD000079
:1029E00010B5094C207874280BD16079B82808D12B
:1029F00004212046FFF7E7FF2179884201D1012019
:102A000010BD002010BD00002C00002010B51248A1
:102A10000078012810D000280DD110230FA2062124
:102A20006420FFF787FB10230DA206216420FFF727
:102A300081FB00F019F810BD102308A206216420C4
:102A4000FFF778FB102307A206216420FFF772FB33
:102A500000F0FEF810BD00001E0000202000000065
:102A6000450000004D00000010B509200121C006FE
:102A7000FDF7FAFF002813D0FFF7E8FB0D4C01210A
:102A80002046FDF7F1FF00280DD0FFF7F7FB0221EC
:102A90002046FDF7E9FF002808D0FFF707FC10BD2E
:102AA000FFF78CFBEAE7FFF7A1FBF0E7FFF7B6FBC8
:102AB00010BD00000014004810B50C48FDF7EAFDF9
:102AC0000A210A48FDF786FD0848FDF795FC084CE9
:102AD000800503D50548FDF791FCA080A08806215C
:102AE00048432321FDF7FEFA208110BDC8000020D5
:102AF0001C00002030B5164801230068154A06283E
:102B000002D20021D16000E0D36011498139445CD8
:102B1000B82C1CD1D168012919D10D498639455CE1
:102B2000742D14D10B4910310D70094D853D455D53
:102B30004D70074D843D455D8D70054D833D455D70
:102B4000CD70034D823D405D08714C71937030BD76
:102B5000C40000201C0000200548014642781039BE
:102B60004A708278C07800021043C8807047000025
:102B70002C00002008B5FEF70DF9FFF7B4FBFFF7B6
:102B80006FF9FFF759F9FFF7A7F9FFF721F9FFF7F9
:102B900009FAFFF7CDF9FFF740FAFFF724FA002111
:102BA00010231BA20846FFF7C5FA10231BA202211F
:102BB0000020FFF7BFFA10231BA204210020FFF71B
:102BC000B9FA10231BA206210020FFF7B3FA1C4814
:102BD000FEF7C2FC6420FDF77DFE002119481A4D66
:102BE00010240160082200940523AA5E00212420FD
:102BF000FFF76AFA012214491448FEF795FFFFF720
:102C000079FFFFF7A9FFFFF757FFFFF7FFFEE9E79F
:102C1000566F6C3A202020202020560043686172B5
:102C200067696E673A0000004469736368617267A0
:102C30003A00000053686F6F74696E673A000000D5
:102C400054010020C40000201C0000209C01002032
:102C500010B500F02DF80520FDF73CFE0D4840783A
:102C6000012805D0FFF722FB1420FDF733FE10BD2D
:102C7000FFF7ECFAFFF702FB0A20FDF72BFEFFF748
:102C8000CDFA6420FDF726FEFFF710FB0248FDF7A2
:102C900021FEE9E72C000020C409000002460120C3
:102CA00000E050430B46491EC9B2002BF9D17047D2
:102CB00010B516490020085E154A0021515E0839FA
:102CC000884208DAFF229132904204DAFFF7EEFAE6
:102CD000FFF774FA0BE00E4B00229A5E083288422E
:102CE00008DD904206DAFFF7E1FAFFF7AFFAFFF7E7
:102CF000C5FA10BD9042FCDD0028FADDFFF7D6FAD8
:102D0000FFF7A4FAFFF772FA10BD000024000020BC
:102D100022000020000000007F49494949497F0006
:102D200000000000000000000000000000000000A3
:102D30000000000000FF49494949FF00FF49494997
:102D400049FF00000000000000000000000000003B
:102D5000000000000404E4040FF40404F444CF442D
:102D600044440400000000000000000000000000D7
:102D70000000000040407D44447D4445447C44457F
:102D80007C40400000000000000000000000000047
:102D9000000000000000F888888888FF88888888FC
:102DA000F80000000000000000000000000000002B
:102DB0000000000000001F080808087F8888888835
:102DC0009F80F000000000000000000000000000F4
:102DD0000000000080828282828282E2A2928A8641
:102DE0008280800000000000000000000000000061
:102DF00000000000000000000040807F0000000094
:102E000000000000000000000000000000000000C2
:102E1000000000002424A4FEA3220022CC0000FF16
:102E200000000000000000000000000000000000A2
:102E300000000000080601FF00010404040404FF70
:102E4000020202000000000000000000000000007C
:102E500000000000101010FF109008888888FF887C
:102E6000888808000000000000000000000000004A
:102E7000000000000444827F01808040432C102821
:102E800046818000000000000000000000000000FB
:102E90000000000000000000000000000000000032
:102EA0000000000000000000000000000000000022
:102EB00000000000000036360000000000000000A6
:102EC0000000000000000000000000000000000002
:102ED000000000000000000000000000002F0000C3
:102EE00000000700070000147F147F1400242A7FCD
:102EF0002A1200626408132300364955225000004C
:102F00000503000000001C224100000041221C00BB
:102F10000014083E08140008083E0808000000A03D
:102F20006000000808080808000060600000002039
:102F300010080402003E5149453E0000427F400017
:102F4000004261514946002141454B31001814129D
:102F50007F10002745454539003C4A49493000016A
:102F60007109050300364949493600064949291EB9
:102F7000000036360000000056360000000814221B
:102F8000410000141414141400004122140800021B
:102F90000151090600324959513E007C1211127C40
:102FA000007F49494936003E41414122007F41416D
:102FB000221C007F49494941007F09090901003E5F
:102FC0004149497A007F0808087F0000417F41009D
:102FD000002040413F01007F08142241007F404013
:102FE0004040007F020C027F007F0408107F003EFB
:102FF0004141413E007F09090906003E4151215EE1
:10300000007F091929460046494949310001017FDD
:103010000101003F4040403F001F2040201F003F73
:103020004038403F00631408146300070870080725
:1030300000615149454300007F41410000552A5538
:103040002A55000041417F000004020102040040B3
:1030500040404040000001020400002054545478D5
:10306000007F4844443800384444442000384444F5
:10307000487F00385454541800087E090102001893
:10308000A4A4A47C007F080404780000447D4000D0
:10309000004080847D00007F102844000000417FB4
:1030A0004000007C04180478007C08040478003890
:1030B0004444443800FC242424180018242418FC18
:1030C000007C0804040800485454542000043F4481
:1030D0004020003C4040207C001C2040201C003C44
:1030E0004030403C004428102844001CA0A0A07C94
:1030F000004464544C4414141414141400000000CC
:10310000000000000000000000000000000000F8C7
:1031100000000000000000333000000000100C062A
:10312000100C0600000000000000000040C07840C5
:10313000C0784000043F04043F040400007088FC91
:1031400008300000001820FF211E0000F008F000E9
:10315000E018000000211C031E211E0000F008885A
:10316000700000001E2123241927211010160E00C4
:10317000000000000000000000000000000000E06F
:103180001804020000000007182040000002041884
:10319000E00000000040201807000000404080F0E0
:1031A000804040000202010F01020200000000F016
:1031B000000000000101011F0101010000000000EA
:1031C0000000000080B0700000000000000000005F
:1031D00000000000000101010101010100000000E8
:1031E000000000000030300000000000000000007F
:1031F00080601804006018060100000000E010085C
:103200000810E000000F102020100F00001010F830
:10321000000000000020203F20200000007008086F
:1032200008887000003028242221300000300888EF
:10323000884830000018202020110E000000C02017
:1032400010F8000000070424243F240000F8088838
:10325000880808000019212020110E0000E01088C5
:1032600088180000000F112020110E0000380808F7
:10327000C83808000000003F000000000070880807
:1032800008887000001C222121221C0000E0100888
:103290000810E0000000312222110F00000000C0E1
:1032A000C00000000000003030000000000000807E
:1032B000000000000000806000000000000080406E
:1032C0002010080000010204081020004040404087
:1032D00040404000040404040404040000081020DA
:1032E000408000000020100804020100007048081F
:1032F0000808F0000000003036010000C030C82887
:10330000E810E0000718272423140B000000C03841
:10331000E0000000203C23020227382008F88888BB
:1033200088700000203F202020110E00C0300808C7
:1033300008083800071820202010080008F808089E
:103340000810E000203F202020100F0008F8888897
:10335000E8081000203F20202320180008F8888863
:10336000E8081000203F200003000000C0300808DB
:103370000838000007182020221E020008F8080064
:103380000008F808203F210101213F20000808F82B
:10339000080800000020203F20200000000008084E
:1033A000F8080800C08080807F00000008F888C00E
:1033B00028180800203F20012638200008F80800BF
:1033C00000000000203F20202020300008F8F800F6
:1033D000F8F80800203F003F003F200008F830C008
:1033E0000008F808203F200007183F00E0100808F8
:1033F0000810E0000F10202020100F0008F8080827
:103400000808F000203F210101010000E010080839
:103410000810E0000F18242438504F0008F888885E
:1034200088887000203F2000030C3020007088083E
:10343000080838000038202121221C00180808F84C
:10344000080818000000203F2000000008F80800CD
:103450000008F808001F202020201F00087888009E
:1034600000C83808000007380E010000F80800F80E
:103470000008F800033C0700073C030008186880B8
:103480008068180820302C03032C30200838C8002E
:10349000C83808000000203F20000000100808087D
:1034A000C83808002038262120201800000000FE1F
:1034B000020202000000007F40404000000C30C0CB
:1034C00000000000000000010638C00000020202F7
:1034D000FE000000004040407F00000000000402A9
:1034E00002020400000000000000000000000000D4
:1034F00000000000808080808080808000020204C4
:1035000000000000000000000000000000008080BB
:10351000808000000019242222223F2008F8008029
:1035200080000000003F112020110E0000000080EC
:1035300080800000000E112020201100000000807B
:103540008088F800000E112020103F2000008080AD
:1035500080800000001F222222221300008080F0C1
:10356000888888180020203F2020000000008080EC
:1035700080808000006B94949493600008F8008031
:1035800080800000203F210000203F20008098988C
:10359000000000000020203F2020000000000080EC
:1035A0009898000000C08080807F000008F800002C
:1035B00080808000203F24022D302000000808F881
:1035C000000000000020203F20200000808080803C
:1035D00080808000203F20003F20003F80800080CE
:1035E00080800000203F210000203F2000008080DC
:1035F00080800000001F202020201F00808000808D
:103600008000000080FFA12020110E00000000803B
:1036100080808000000E112020A0FF80808080002C
:103620008080800020203F21200001000000808059
:10363000808080000033242424241900008080E04E
:10364000808000000000001F20200000808000001B
:1036500000808000001F202020103F2080808000FC
:103660000080808000010E3008060100808000800C
:10367000008080800F300C030C300F000080800031
:10368000808080000020312E0E312000808080005C
:103690000080808080818E7018060100008080800C
:1036A000808080000021302C2221300000000000AA
:1036B000807C020200000000003F4040000000004B
:1036C000FF00000000000000FF0000000002027C7C
:1036D000800000000040403F0000000000060101A3
:1036E00002020404000000000000000000000000CE
:1036F00000000000010203040607080900000000A2
:1037000001020304243700080000002044000000E8
:10371000A82900086837000844000020640600005B
:10372000B8290008AE001040B081FFA1A6A83FC88C
:10373000D300D580D805D9F1DA12D8308D14AF0076
:103740000000000000000000000000000000000079
:103750000000000000000000010000000400000064
:083760000000000000127A00D5
:04000005080000B13E
:00000001FF
